{
  "contractName": "Lottery",
  "abi": [
    {
      "inputs": [
        {
          "internalType": "uint256",
          "name": "_ticketPrice",
          "type": "uint256"
        }
      ],
      "stateMutability": "nonpayable",
      "type": "constructor"
    },
    {
      "anonymous": false,
      "inputs": [
        {
          "indexed": false,
          "internalType": "uint256",
          "name": "randomNumber",
          "type": "uint256"
        },
        {
          "indexed": false,
          "internalType": "address",
          "name": "winner",
          "type": "address"
        }
      ],
      "name": "LotteryResult",
      "type": "event"
    },
    {
      "anonymous": false,
      "inputs": [
        {
          "indexed": true,
          "internalType": "address",
          "name": "previousOwner",
          "type": "address"
        },
        {
          "indexed": true,
          "internalType": "address",
          "name": "newOwner",
          "type": "address"
        }
      ],
      "name": "OwnershipTransferred",
      "type": "event"
    },
    {
      "anonymous": false,
      "inputs": [
        {
          "indexed": false,
          "internalType": "bytes32",
          "name": "requestId",
          "type": "bytes32"
        }
      ],
      "name": "RequestedRandomNumber",
      "type": "event"
    },
    {
      "inputs": [],
      "name": "owner",
      "outputs": [
        {
          "internalType": "address",
          "name": "",
          "type": "address"
        }
      ],
      "stateMutability": "view",
      "type": "function"
    },
    {
      "inputs": [
        {
          "internalType": "uint256",
          "name": "",
          "type": "uint256"
        }
      ],
      "name": "participants",
      "outputs": [
        {
          "internalType": "address",
          "name": "",
          "type": "address"
        }
      ],
      "stateMutability": "view",
      "type": "function"
    },
    {
      "inputs": [
        {
          "internalType": "bytes32",
          "name": "",
          "type": "bytes32"
        }
      ],
      "name": "randomNumber",
      "outputs": [
        {
          "internalType": "uint256",
          "name": "",
          "type": "uint256"
        }
      ],
      "stateMutability": "view",
      "type": "function"
    },
    {
      "inputs": [],
      "name": "renounceOwnership",
      "outputs": [],
      "stateMutability": "nonpayable",
      "type": "function"
    },
    {
      "inputs": [],
      "name": "ticketPrice",
      "outputs": [
        {
          "internalType": "uint256",
          "name": "",
          "type": "uint256"
        }
      ],
      "stateMutability": "view",
      "type": "function"
    },
    {
      "inputs": [
        {
          "internalType": "address",
          "name": "newOwner",
          "type": "address"
        }
      ],
      "name": "transferOwnership",
      "outputs": [],
      "stateMutability": "nonpayable",
      "type": "function"
    },
    {
      "inputs": [],
      "name": "enter",
      "outputs": [],
      "stateMutability": "payable",
      "type": "function"
    },
    {
      "inputs": [],
      "name": "getParticipants",
      "outputs": [
        {
          "internalType": "address[]",
          "name": "",
          "type": "address[]"
        }
      ],
      "stateMutability": "view",
      "type": "function"
    },
    {
      "inputs": [],
      "name": "requestRandomNumber",
      "outputs": [],
      "stateMutability": "nonpayable",
      "type": "function"
    },
    {
      "inputs": [
        {
          "internalType": "bytes32",
          "name": "_requestId",
          "type": "bytes32"
        },
        {
          "internalType": "uint256",
          "name": "_randomNumber",
          "type": "uint256"
        }
      ],
      "name": "setRandomNumber",
      "outputs": [],
      "stateMutability": "nonpayable",
      "type": "function"
    },
    {
      "inputs": [],
      "name": "withdraw",
      "outputs": [],
      "stateMutability": "nonpayable",
      "type": "function"
    }
  ],
  "bytecode": "0x60806040523480156200001157600080fd5b50604051620011bf380380620011bf833981810160405281019062000037919062000171565b620000576200004b6200006560201b60201c565b6200006d60201b60201c565b8060018190555050620001a3565b600033905090565b60008060009054906101000a900473ffffffffffffffffffffffffffffffffffffffff169050816000806101000a81548173ffffffffffffffffffffffffffffffffffffffff021916908373ffffffffffffffffffffffffffffffffffffffff1602179055508173ffffffffffffffffffffffffffffffffffffffff168173ffffffffffffffffffffffffffffffffffffffff167f8be0079c531659141344cd1fd0a4f28419497f9722a3daafe3b4186f6b6457e060405160405180910390a35050565b600080fd5b6000819050919050565b6200014b8162000136565b81146200015757600080fd5b50565b6000815190506200016b8162000140565b92915050565b6000602082840312156200018a576200018962000131565b5b60006200019a848285016200015a565b91505092915050565b61100c80620001b36000396000f3fe60806040526004361061009c5760003560e01c80636897443b116100645780636897443b14610188578063715018a6146101b15780638678a7b2146101c85780638da5cb5b146101df578063e97dcb621461020a578063f2fde38b146102145761009c565b80631209b1f6146100a157806335c1d349146100cc5780633ccfd60b1461010957806340b43c72146101205780635aa68ac01461015d575b600080fd5b3480156100ad57600080fd5b506100b661023d565b6040516100c39190610976565b60405180910390f35b3480156100d857600080fd5b506100f360048036038101906100ee91906109c2565b610243565b6040516101009190610a30565b60405180910390f35b34801561011557600080fd5b5061011e610282565b005b34801561012c57600080fd5b5061014760048036038101906101429190610a81565b6102e0565b6040516101549190610976565b60405180910390f35b34801561016957600080fd5b506101726102f8565b60405161017f9190610b6c565b60405180910390f35b34801561019457600080fd5b506101af60048036038101906101aa9190610b8e565b610386565b005b3480156101bd57600080fd5b506101c66103b3565b005b3480156101d457600080fd5b506101dd6103c7565b005b3480156101eb57600080fd5b506101f4610462565b6040516102019190610a30565b60405180910390f35b61021261048b565b005b34801561022057600080fd5b5061023b60048036038101906102369190610bfa565b610534565b005b60015481565b6002818154811061025357600080fd5b906000526020600020016000915054906101000a900473ffffffffffffffffffffffffffffffffffffffff1681565b61028a6105b7565b6000479050610297610462565b73ffffffffffffffffffffffffffffffffffffffff166108fc829081150290604051600060405180830381858888f193505050501580156102dc573d6000803e3d6000fd5b5050565b60046020528060005260406000206000915090505481565b6060600280548060200260200160405190810160405280929190818152602001828054801561037c57602002820191906000526020600020905b8160009054906101000a900473ffffffffffffffffffffffffffffffffffffffff1673ffffffffffffffffffffffffffffffffffffffff1681526020019060010190808311610332575b5050505050905090565b61038e6105b7565b8060046000848152602001908152602001600020819055506103af82610635565b5050565b6103bb6105b7565b6103c56000610788565b565b6103cf6105b7565b423343306040516020016103e69493929190610c90565b604051602081830303815290604052805190602001206003819055506000620f424060035460001c6104189190610d0d565b905061042660035482610386565b7fc620a79baed7e5f06637aa5ab699c2b03ee40b2ae3ba4a91ed1eb0bd00b8ea3b6003546040516104579190610d4d565b60405180910390a150565b60008060009054906101000a900473ffffffffffffffffffffffffffffffffffffffff16905090565b60015434146104cf576040517f08c379a00000000000000000000000000000000000000000000000000000000081526004016104c690610dc5565b60405180910390fd5b6002339080600181540180825580915050600190039060005260206000200160009091909190916101000a81548173ffffffffffffffffffffffffffffffffffffffff021916908373ffffffffffffffffffffffffffffffffffffffff160217905550565b61053c6105b7565b600073ffffffffffffffffffffffffffffffffffffffff168173ffffffffffffffffffffffffffffffffffffffff16036105ab576040517f08c379a00000000000000000000000000000000000000000000000000000000081526004016105a290610e57565b60405180910390fd5b6105b481610788565b50565b6105bf61084c565b73ffffffffffffffffffffffffffffffffffffffff166105dd610462565b73ffffffffffffffffffffffffffffffffffffffff1614610633576040517f08c379a000000000000000000000000000000000000000000000000000000000815260040161062a90610ec3565b60405180910390fd5b565b60006002805490501161067d576040517f08c379a000000000000000000000000000000000000000000000000000000000815260040161067490610f2f565b60405180910390fd5b600060028054905060046000848152602001908152602001600020546106a39190610d0d565b90506000600282815481106106bb576106ba610f4f565b5b9060005260206000200160009054906101000a900473ffffffffffffffffffffffffffffffffffffffff1690508073ffffffffffffffffffffffffffffffffffffffff166108fc479081150290604051600060405180830381858888f1935050505015801561072e573d6000803e3d6000fd5b507fe170fce11247dd815bacca1b2d6f3b5ea3a864c10498b731ad441154cfa64e01600460008581526020019081526020016000205482604051610773929190610f7e565b60405180910390a1610783610854565b505050565b60008060009054906101000a900473ffffffffffffffffffffffffffffffffffffffff169050816000806101000a81548173ffffffffffffffffffffffffffffffffffffffff021916908373ffffffffffffffffffffffffffffffffffffffff1602179055508173ffffffffffffffffffffffffffffffffffffffff168173ffffffffffffffffffffffffffffffffffffffff167f8be0079c531659141344cd1fd0a4f28419497f9722a3daafe3b4186f6b6457e060405160405180910390a35050565b600033905090565b600067ffffffffffffffff81111561086f5761086e610fa7565b5b60405190808252806020026020018201604052801561089d5781602001602082028036833780820191505090505b50600290805190602001906108b39291906108b6565b50565b82805482825590600052602060002090810192821561092f579160200282015b8281111561092e5782518260006101000a81548173ffffffffffffffffffffffffffffffffffffffff021916908373ffffffffffffffffffffffffffffffffffffffff160217905550916020019190600101906108d6565b5b50905061093c9190610940565b5090565b5b80821115610959576000816000905550600101610941565b5090565b6000819050919050565b6109708161095d565b82525050565b600060208201905061098b6000830184610967565b92915050565b600080fd5b61099f8161095d565b81146109aa57600080fd5b50565b6000813590506109bc81610996565b92915050565b6000602082840312156109d8576109d7610991565b5b60006109e6848285016109ad565b91505092915050565b600073ffffffffffffffffffffffffffffffffffffffff82169050919050565b6000610a1a826109ef565b9050919050565b610a2a81610a0f565b82525050565b6000602082019050610a456000830184610a21565b92915050565b6000819050919050565b610a5e81610a4b565b8114610a6957600080fd5b50565b600081359050610a7b81610a55565b92915050565b600060208284031215610a9757610a96610991565b5b6000610aa584828501610a6c565b91505092915050565b600081519050919050565b600082825260208201905092915050565b6000819050602082019050919050565b610ae381610a0f565b82525050565b6000610af58383610ada565b60208301905092915050565b6000602082019050919050565b6000610b1982610aae565b610b238185610ab9565b9350610b2e83610aca565b8060005b83811015610b5f578151610b468882610ae9565b9750610b5183610b01565b925050600181019050610b32565b5085935050505092915050565b60006020820190508181036000830152610b868184610b0e565b905092915050565b60008060408385031215610ba557610ba4610991565b5b6000610bb385828601610a6c565b9250506020610bc4858286016109ad565b9150509250929050565b610bd781610a0f565b8114610be257600080fd5b50565b600081359050610bf481610bce565b92915050565b600060208284031215610c1057610c0f610991565b5b6000610c1e84828501610be5565b91505092915050565b6000819050919050565b610c42610c3d8261095d565b610c27565b82525050565b60008160601b9050919050565b6000610c6082610c48565b9050919050565b6000610c7282610c55565b9050919050565b610c8a610c8582610a0f565b610c67565b82525050565b6000610c9c8287610c31565b602082019150610cac8286610c79565b601482019150610cbc8285610c31565b602082019150610ccc8284610c79565b60148201915081905095945050505050565b7f4e487b7100000000000000000000000000000000000000000000000000000000600052601260045260246000fd5b6000610d188261095d565b9150610d238361095d565b925082610d3357610d32610cde565b5b828206905092915050565b610d4781610a4b565b82525050565b6000602082019050610d626000830184610d3e565b92915050565b600082825260208201905092915050565b7f496e636f7272656374207469636b657420707269636500000000000000000000600082015250565b6000610daf601683610d68565b9150610dba82610d79565b602082019050919050565b60006020820190508181036000830152610dde81610da2565b9050919050565b7f4f776e61626c653a206e6577206f776e657220697320746865207a65726f206160008201527f6464726573730000000000000000000000000000000000000000000000000000602082015250565b6000610e41602683610d68565b9150610e4c82610de5565b604082019050919050565b60006020820190508181036000830152610e7081610e34565b9050919050565b7f4f776e61626c653a2063616c6c6572206973206e6f7420746865206f776e6572600082015250565b6000610ead602083610d68565b9150610eb882610e77565b602082019050919050565b60006020820190508181036000830152610edc81610ea0565b9050919050565b7f4e6f207061727469636970616e747320696e20746865206c6f74746572790000600082015250565b6000610f19601e83610d68565b9150610f2482610ee3565b602082019050919050565b60006020820190508181036000830152610f4881610f0c565b9050919050565b7f4e487b7100000000000000000000000000000000000000000000000000000000600052603260045260246000fd5b6000604082019050610f936000830185610967565b610fa06020830184610a21565b9392505050565b7f4e487b7100000000000000000000000000000000000000000000000000000000600052604160045260246000fdfea264697066735822122001ba08671e5fcdf5ea6fc1683f6599c5a0d703e51037e332f0fcda75a8c67c5064736f6c63430008130033",
  "immutableReferences": {},
  "source": "//SPDX-License-Identifier: MIT\r\npragma solidity ^0.8.0;\r\n\r\nimport \"@openzeppelin/contracts/access/Ownable.sol\";\r\nimport \"@openzeppelin/contracts/utils/math/SafeMath.sol\";\r\n\r\ncontract Lottery is Ownable {\r\n    using SafeMath for uint256;\r\n\r\n    uint256 public ticketPrice;\r\n    address[] public participants;\r\n    bytes32 private requestId;\r\n    mapping(bytes32 => uint256) public randomNumber;\r\n\r\n    event RequestedRandomNumber(bytes32 requestId);\r\n    event LotteryResult(uint256 randomNumber, address winner);\r\n\r\n    constructor(uint256 _ticketPrice) {\r\n        ticketPrice = _ticketPrice;\r\n    }\r\n\r\n    function enter() public payable {\r\n        require(msg.value == ticketPrice, \"Incorrect ticket price\");\r\n        participants.push(msg.sender);\r\n    }\r\n\r\n    function getParticipants() public view returns (address[] memory) {\r\n        return participants;\r\n    }\r\n\r\n    function requestRandomNumber() public onlyOwner {\r\n        requestId = keccak256(abi.encodePacked(block.timestamp, msg.sender, block.number, address(this)));\r\n        uint256 _randomNumber = uint256(requestId) % 1000000; // use requestId as a source of randomness\r\n        setRandomNumber(requestId, _randomNumber);\r\n        emit RequestedRandomNumber(requestId);\r\n    }\r\n\r\n    function setRandomNumber(bytes32 _requestId, uint256 _randomNumber) public onlyOwner {\r\n        randomNumber[_requestId] = _randomNumber;\r\n        pickWinner(_requestId);\r\n    }\r\n\r\n    function pickWinner(bytes32 _requestId) private {\r\n        require(participants.length > 0, \"No participants in the lottery\");\r\n        uint256 index = randomNumber[_requestId] % participants.length;\r\n        address winner = participants[index];\r\n\r\n        payable(winner).transfer(address(this).balance);\r\n\r\n        emit LotteryResult(randomNumber[_requestId], winner);\r\n        resetLottery();\r\n    }\r\n\r\n\r\n    function resetLottery() private {\r\n        participants = new address[](0);\r\n    }\r\n\r\n    function withdraw() public onlyOwner {\r\n        uint256 balance = address(this).balance;\r\n        payable(owner()).transfer(balance);\r\n    }\r\n}\r\n",
  "sourcePath": "D:\\Programming\\DIP_FINAL\\prod\\lottery\\contracts\\Lottery.sol",
  "compiler": {
    "name": "solc",
    "version": "0.8.19+commit.7dd6d404.Emscripten.clang"
  },
  "schemaVersion": "3.4.13",
  "updatedAt": "2023-05-08T16:25:20.406Z",
  "devdoc": {
    "kind": "dev",
    "methods": {
      "owner()": {
        "details": "Returns the address of the current owner."
      },
      "renounceOwnership()": {
        "details": "Leaves the contract without owner. It will not be possible to call `onlyOwner` functions anymore. Can only be called by the current owner. NOTE: Renouncing ownership will leave the contract without an owner, thereby removing any functionality that is only available to the owner."
      },
      "transferOwnership(address)": {
        "details": "Transfers ownership of the contract to a new account (`newOwner`). Can only be called by the current owner."
      }
    },
    "version": 1
  },
  "userdoc": {
    "kind": "user",
    "methods": {},
    "version": 1
  }
}